:1000000012C02AC029C028C078C126C064C224C03A
:1000100023C022C021C020C01FC096C2CDC21CC0B8
:100020001BC01AC019C011241FBECFEDCDBF10E0F8
:10003000A0E6B0E0E4EAF7E002C005900D92A83730
:10004000B107D9F720E0A8E7B0E001C01D92A939B7
:10005000B207E1F7E6D2A4C3D3CF8091600069E193
:1000600031D38E5C8CBF0895809162008F5F8831A0
:1000700008F080E0809362001092940008958091CF
:1000800093008F5F8C3328F4809393001092940038
:10009000089510929300E8DFF9CF282F46B350E07F
:1000A00086E0820F02C0559547958A95E2F7409504
:1000B0005095842F817030E0220F331F40FF26C0FF
:1000C000D901AF57BF4F4D915C911197F901E3589A
:1000D000FF4F60817181403D97E0590770F44F5F99
:1000E0005F4F4D935C93672B79F4483C510560F06A
:1000F00021E030E03183208308956330710521F0E1
:1001000082E090E09183808380E00895F901E358D4
:10011000FF4F118210822F573F4FF9011182108239
:10012000F3CF282F8A30A0F030916000832F90E029
:1001300069E170E0D0D28896821791052CF4832F64
:1001400069E1C0D228E2280F26BF209361000895FC
:100150002AE0FACFDF92EF92FF920F931F93CF9393
:10016000DF9300D000D0CDB7DD279C0180917200D5
:1001700090917300A0917400B091750089839A8367
:10018000AB83BC8380917B0090917C008130910592
:1001900091F0029709F463C0232B31F5809162003E
:1001A0002AE0622FA9D289839A8380919300A4D2F6
:1001B0008B839C8319C080917800909179002CE00A
:1001C00097FF04C09195819591092EE029832AE03B
:1001D00030E0B9019DD28C83CB01B90199D28B83D8
:1001E000CB01B90195D28A83DE0111966EE870E0E9
:1001F0004AE850E026E830E08E010B5F1F4FED919A
:10020000F0E0ED59FF4F9081FB018191BF01FA01B0
:10021000F190AF01F901E1909F018F29EE2DE0955A
:100220008E23FB01829398277A01F1E0EF1AF108FF
:10023000E82FE095DE2ED922F701D082F90189233B
:1002400082930A171B07D9F68AE0CC5FCDBFDF91F6
:10025000CF911F910F91FF90EF90DF9062CF8BE0D5
:100260008983809160008C83BFCF20917B00309187
:100270007C002130310549F02230310501F1811136
:100280002DC0FDDE1092940010C0209178003091B6
:10029000790081110DC0273E83E0380734F42F5FC9
:1002A0003F4F309379002093780010927A000895A0
:1002B0002A318CEF3807CCF321503109F2CF9091DD
:1002C0006000811107C0983018F49F5F9093600020
:1002D000C4DEEBCF9115E1F39150F8CFC5DED2CF5C
:1002E000609178007091790080E090E03BD260915D
:1002F000600070E082E090E035C21F920F920FB66E
:100300000F9211242F933F934F935F936F937F939B
:100310008F939F93AF93BF93CF93DF93EF93FF930D
:10032000A89580919700909198009C012F5F3F4F76
:10033000203D47E03407A4F43093980020939700C1
:10034000D0E0C0E080E0A9DE811509F469C080E05A
:100350008CDF81E0809392008D2F90E0FBDEA8C0BF
:100360008F5C9740909398008093970080919400C1
:100370008F5F809394008C3308F44CC080DE81E062
:10038000C1E0909192009111C0E0C82B809194003F
:10039000D82FD17080FF40C0C49888B388BBD1E00B
:1003A000809192008111D0E080919500909196000B
:1003B00001969093960080939500803D9740A0F021
:1003C0002091780030917900220F331F809197009F
:1003D00090919800820F931F9093980080939700BC
:1003E000109296001092950080917B0090917C0075
:1003F000892B09F4A7CF80917A008F5F80937A00D0
:10040000863008F49FCF10927C0010927B0068DF4A
:10041000C1E098CF80E0B4CF88B388BBC49AC4CF82
:1004200081E03BDE811511F081E092CF20917D00CB
:1004300030917E002230310521F580917F0090912E
:1004400080000297F1F480917B0090917C009C01E8
:100450002F5F3F4F029779F030937C0020937B0011
:1004600083E090E09093800080937F0090937E00E3
:1004700080937D0071CF10927C0010927B0030DF62
:10048000EFCF809197009091980064EF71E040D198
:10049000892B59F42230310509F459CF80917F001E
:1004A00090918000029709F4BFCFC11509F054CF95
:1004B000FF91EF91DF91CF91BF91AF919F918F917C
:1004C0007F916F915F914F913F912F910F900FBE50
:1004D0000F901F9018951F920F920FB60F92112434
:1004E0002F933F938F939F93AF93BF93EF93FF937C
:1004F0002091850030E0D901A257BF4FF901E6579E
:10050000FF4F8C919081892B80952A573F4FF9019D
:100510009081892B82BB28B33091850081E090E0E7
:1005200001C0880F3A95EAF78095822388BBFF9136
:10053000EF91BF91AF919F918F913F912F910F902C
:100540000FBE0F901F9018951F920F920FB60F922B
:1005500011242F933F935F936F937F938F939F9378
:10056000EF93FF938091600090E069E170E0B3D079
:100570008796209161008217910584F022B38091C3
:10058000850090E0FC01E657FF4F3081232B8A570E
:100590009F4FFC0180818095822382BBFF91EF9168
:1005A0009F918F917F916F915F913F912F910F90CC
:1005B0000FBE0F901F9018951F920F920FB60F92BB
:1005C00011242F933F934F935F936F937F938F9358
:1005D0009F93AF93BF93EF93FF938FEF82BB88B34B
:1005E0008F6088BB8091850090E001968370992789
:1005F00080938500009721F4809161008E5F91DDEA
:10060000FF91EF91BF91AF919F918F917F916F91EA
:100610005F914F913F912F910F900FBE0F901F90C0
:10062000189588E19CE00FB6F894A89581BD0FBE9F
:1006300091BDA89512BA8FE781BB88B38F6088BB44
:1006400087B38F6087BB80E090E084DD88B3806CE7
:1006500088BB80EA8ABD8FE08BBD1FBC89E08EBD60
:1006600089B7806489BFC3E0C0BF8AE05ADDF5DC8A
:1006700089B7876089BFC3BF80E090E070D0EC018C
:10068000909379008093780082E090E068D0809326
:100690006000C951DC4FCF3CD74088F01092790000
:1006A00010927800893018F084E08093600018DEA2
:1006B000D4DC85B7806285BF78948895FECF893079
:1006C00098F7F6CF002480FD060E660F11F0869590
:1006D000D1F7802D08950024552704C0080E591F16
:1006E000880F991F009729F076956795B8F37105E3
:1006F000B9F7802D952F0895992778E0880F991FD5
:10070000961708F0961B881F7A95C9F7809508956B
:1007100097FB072E16F4009406D077FD08D00BD077
:1007200007FC05D03EF4909581959F4F08957095F4
:1007300061957F4F0895AA1BBB1B51E107C0AA1FFB
:10074000BB1FA617B70710F0A61BB70B881F991F72
:100750005A95A9F780959095BC01CD010895A8E11F
:1007600042E005C010D0272F0FC0A82F862FE82FFA
:10077000E199FECF05C0EEBBE09AE3950DB20D9274
:100780004150C8F70895262FE199FECF1CBA8EBBC1
:100790002DBB0FB6F894E29AE19A0FBE0196089528
:0407A000F894FFCFFB
:1007A400040A0C3F065B4F666D7D077F6F007C3942
:0807B4005E790A0A0A0A00003E
:00000001FF
